:100000000C942A000C9447000C9447000C94470071
:100010000C9447000C9447000C9447000C94470044
:100020000C9447000C9447000C9447000C94470034
:100030000C9447000C9447000C9447000C94470024
:100040000C9447000C9447000C9447000C94470014
:100050000C94470011241FBECFE5D4E0DEBFCDBF16
:1000600010E0A0E6B0E0EAE7F2E002C005900D92F1
:10007000A837B107D9F720E0A8E7B0E001C01D928A
:10008000AA37B207E1F70E94B8000C943B010C9428
:10009000000007C087EB9BE00197F1F700C000006C
:1000A000C9019C0121503109892BA1F7089585BB15
:1000B00082B38B7F82BB82B3806182BB85E090E09C
:1000C0000E94490082B38F7E82BB089585BB82B3B4
:1000D000846082BB82B3806182BB85E090E00E9435
:1000E000490082B38F7E82BB0895CF93DF93EC01EA
:1000F00003C021960E94660088818111FACFDF91AA
:10010000CF910895CF93DF93EC0180EC0E945700CC
:100110002AE030E0CE01B9010E941301EC01CB01CD
:10012000B9010E941301FC01E05AFF4F80810E9437
:100130006600C05ADF4F88810E946600DF91CF9130
:10014000089588E30E9457008CE00E94570081E0E8
:100150000E94570080E80E9457000895892B21F0E3
:1001600088B3816088BB089588B38E7F88BB08956B
:100170008FEF81BB84BB81E087BB8AB38C7F8ABB56
:100180008BB383608BBB0E94A1008AE690E00E9443
:10019000750080EC0E945700809178009091790062
:1001A0000E948200C89B17C0C99BFECF8091780037
:1001B000909179008336910529F00196909379000A
:1001C00080937800C999FECF809178009091790052
:1001D0000E94820017C0C99B15C0C89BFECF8091AA
:1001E000780090917900009729F001979093790019
:1001F00080937800C899FECF809178009091790023
:100200000E9482008091780090917900181619065A
:100210002CF481E090E00E94AE00C4CF80E090E03A
:100220000E94AE00BFCF97FB072E16F4009407D0B4
:1002300077FD09D00E94270107FC05D03EF4909578
:1002400081959F4F0895709561957F4F0895AA1BE2
:10025000BB1B51E107C0AA1FBB1FA617B70710F0B1
:10026000A61BB70B881F991F5A95A9F780959095E3
:0A027000BC01CD010895F894FFCF02
:10027A00303132333435363738394E6F206F662095
:08028A00506572736F6E0000F5
:00000001FF
